{
	"Learns/Integerwrap.sol": {
		"Second": {
			"abi": [
				{
					"inputs": [],
					"name": "Setaddress",
					"outputs": [
						{
							"internalType": "address",
							"name": "",
							"type": "address"
						}
					],
					"stateMutability": "view",
					"type": "function"
				},
				{
					"inputs": [],
					"name": "getbalanceofAddress",
					"outputs": [
						{
							"internalType": "uint256",
							"name": "",
							"type": "uint256"
						}
					],
					"stateMutability": "view",
					"type": "function"
				},
				{
					"inputs": [],
					"name": "increment",
					"outputs": [],
					"stateMutability": "nonpayable",
					"type": "function"
				},
				{
					"inputs": [
						{
							"internalType": "address",
							"name": "a",
							"type": "address"
						}
					],
					"name": "setAddress",
					"outputs": [],
					"stateMutability": "nonpayable",
					"type": "function"
				},
				{
					"inputs": [],
					"name": "uInt8",
					"outputs": [
						{
							"internalType": "uint8",
							"name": "",
							"type": "uint8"
						}
					],
					"stateMutability": "view",
					"type": "function"
				}
			],
			"devdoc": {
				"kind": "dev",
				"methods": {},
				"version": 1
			},
			"evm": {
				"assembly": "    /* \"Learns/Integerwrap.sol\":27:419  contract Second{\r... */\n  mstore(0x40, 0x80)\n  callvalue\n  dup1\n  iszero\n  tag_1\n  jumpi\n  0x00\n  dup1\n  revert\ntag_1:\n  pop\n  dataSize(sub_0)\n  dup1\n  dataOffset(sub_0)\n  0x00\n  codecopy\n  0x00\n  return\nstop\n\nsub_0: assembly {\n        /* \"Learns/Integerwrap.sol\":27:419  contract Second{\r... */\n      mstore(0x40, 0x80)\n      callvalue\n      dup1\n      iszero\n      tag_1\n      jumpi\n      0x00\n      dup1\n      revert\n    tag_1:\n      pop\n      jumpi(tag_2, lt(calldatasize, 0x04))\n      shr(0xe0, calldataload(0x00))\n      dup1\n      0x0fc9eacc\n      eq\n      tag_3\n      jumpi\n      dup1\n      0x6a861013\n      eq\n      tag_4\n      jumpi\n      dup1\n      0x896b16f3\n      eq\n      tag_5\n      jumpi\n      dup1\n      0xd09de08a\n      eq\n      tag_6\n      jumpi\n      dup1\n      0xe30081a0\n      eq\n      tag_7\n      jumpi\n    tag_2:\n      0x00\n      dup1\n      revert\n        /* \"Learns/Integerwrap.sol\":133:158  address public Setaddress */\n    tag_3:\n      tag_8\n      tag_9\n      jump\t// in\n    tag_8:\n      mload(0x40)\n      tag_10\n      swap2\n      swap1\n      tag_11\n      jump\t// in\n    tag_10:\n      mload(0x40)\n      dup1\n      swap2\n      sub\n      swap1\n      return\n        /* \"Learns/Integerwrap.sol\":271:416  function getbalanceofAddress() public view returns(uint){\r... */\n    tag_4:\n      tag_12\n      tag_13\n      jump\t// in\n    tag_12:\n      mload(0x40)\n      tag_14\n      swap2\n      swap1\n      tag_15\n      jump\t// in\n    tag_14:\n      mload(0x40)\n      dup1\n      swap2\n      sub\n      swap1\n      return\n        /* \"Learns/Integerwrap.sol\":49:67  uint8 public uInt8 */\n    tag_5:\n      tag_16\n      tag_17\n      jump\t// in\n    tag_16:\n      mload(0x40)\n      tag_18\n      swap2\n      swap1\n      tag_19\n      jump\t// in\n    tag_18:\n      mload(0x40)\n      dup1\n      swap2\n      sub\n      swap1\n      return\n        /* \"Learns/Integerwrap.sol\":74:127  function increment() public{\r... */\n    tag_6:\n      tag_20\n      tag_21\n      jump\t// in\n    tag_20:\n      stop\n        /* \"Learns/Integerwrap.sol\":197:265  function setAddress(address a) public{\r... */\n    tag_7:\n      tag_22\n      0x04\n      dup1\n      calldatasize\n      sub\n      dup2\n      add\n      swap1\n      tag_23\n      swap2\n      swap1\n      tag_24\n      jump\t// in\n    tag_23:\n      tag_25\n      jump\t// in\n    tag_22:\n      stop\n        /* \"Learns/Integerwrap.sol\":133:158  address public Setaddress */\n    tag_9:\n      0x00\n      0x01\n      swap1\n      sload\n      swap1\n      0x0100\n      exp\n      swap1\n      div\n      0xffffffffffffffffffffffffffffffffffffffff\n      and\n      dup2\n      jump\t// out\n        /* \"Learns/Integerwrap.sol\":271:416  function getbalanceofAddress() public view returns(uint){\r... */\n    tag_13:\n        /* \"Learns/Integerwrap.sol\":322:326  uint */\n      0x00\n        /* \"Learns/Integerwrap.sol\":345:355  Setaddress */\n      dup1\n      0x01\n      swap1\n      sload\n      swap1\n      0x0100\n      exp\n      swap1\n      div\n      0xffffffffffffffffffffffffffffffffffffffff\n      and\n        /* \"Learns/Integerwrap.sol\":345:363  Setaddress.balance */\n      0xffffffffffffffffffffffffffffffffffffffff\n      and\n      balance\n        /* \"Learns/Integerwrap.sol\":338:363  return Setaddress.balance */\n      swap1\n      pop\n        /* \"Learns/Integerwrap.sol\":271:416  function getbalanceofAddress() public view returns(uint){\r... */\n      swap1\n      jump\t// out\n        /* \"Learns/Integerwrap.sol\":49:67  uint8 public uInt8 */\n    tag_17:\n      0x00\n      dup1\n      sload\n      swap1\n      0x0100\n      exp\n      swap1\n      div\n      0xff\n      and\n      dup2\n      jump\t// out\n        /* \"Learns/Integerwrap.sol\":74:127  function increment() public{\r... */\n    tag_21:\n        /* \"Learns/Integerwrap.sol\":112:117  uInt8 */\n      0x00\n      dup1\n        /* \"Learns/Integerwrap.sol\":112:119  uInt8++ */\n      dup2\n      dup2\n      swap1\n      sload\n      swap1\n      0x0100\n      exp\n      swap1\n      div\n      0xff\n      and\n      dup1\n      swap3\n      swap2\n      swap1\n      tag_28\n      swap1\n      tag_29\n      jump\t// in\n    tag_28:\n      swap2\n      swap1\n      0x0100\n      exp\n      dup2\n      sload\n      dup2\n      0xff\n      mul\n      not\n      and\n      swap1\n      dup4\n      0xff\n      and\n      mul\n      or\n      swap1\n      sstore\n      pop\n      pop\n        /* \"Learns/Integerwrap.sol\":74:127  function increment() public{\r... */\n      jump\t// out\n        /* \"Learns/Integerwrap.sol\":197:265  function setAddress(address a) public{\r... */\n    tag_25:\n        /* \"Learns/Integerwrap.sol\":256:257  a */\n      dup1\n        /* \"Learns/Integerwrap.sol\":245:255  Setaddress */\n      0x00\n      0x01\n        /* \"Learns/Integerwrap.sol\":245:257  Setaddress=a */\n      0x0100\n      exp\n      dup2\n      sload\n      dup2\n      0xffffffffffffffffffffffffffffffffffffffff\n      mul\n      not\n      and\n      swap1\n      dup4\n      0xffffffffffffffffffffffffffffffffffffffff\n      and\n      mul\n      or\n      swap1\n      sstore\n      pop\n        /* \"Learns/Integerwrap.sol\":197:265  function setAddress(address a) public{\r... */\n      pop\n      jump\t// out\n        /* \"#utility.yul\":7:146   */\n    tag_32:\n        /* \"#utility.yul\":53:58   */\n      0x00\n        /* \"#utility.yul\":91:97   */\n      dup2\n        /* \"#utility.yul\":78:98   */\n      calldataload\n        /* \"#utility.yul\":69:98   */\n      swap1\n      pop\n        /* \"#utility.yul\":107:140   */\n      tag_34\n        /* \"#utility.yul\":134:139   */\n      dup2\n        /* \"#utility.yul\":107:140   */\n      tag_35\n      jump\t// in\n    tag_34:\n        /* \"#utility.yul\":7:146   */\n      swap3\n      swap2\n      pop\n      pop\n      jump\t// out\n        /* \"#utility.yul\":152:481   */\n    tag_24:\n        /* \"#utility.yul\":211:217   */\n      0x00\n        /* \"#utility.yul\":260:262   */\n      0x20\n        /* \"#utility.yul\":248:257   */\n      dup3\n        /* \"#utility.yul\":239:246   */\n      dup5\n        /* \"#utility.yul\":235:258   */\n      sub\n        /* \"#utility.yul\":231:263   */\n      slt\n        /* \"#utility.yul\":228:347   */\n      iszero\n      tag_37\n      jumpi\n        /* \"#utility.yul\":266:345   */\n      tag_38\n      tag_39\n      jump\t// in\n    tag_38:\n        /* \"#utility.yul\":228:347   */\n    tag_37:\n        /* \"#utility.yul\":386:387   */\n      0x00\n        /* \"#utility.yul\":411:464   */\n      tag_40\n        /* \"#utility.yul\":456:463   */\n      dup5\n        /* \"#utility.yul\":447:453   */\n      dup3\n        /* \"#utility.yul\":436:445   */\n      dup6\n        /* \"#utility.yul\":432:454   */\n      add\n        /* \"#utility.yul\":411:464   */\n      tag_32\n      jump\t// in\n    tag_40:\n        /* \"#utility.yul\":401:464   */\n      swap2\n      pop\n        /* \"#utility.yul\":357:474   */\n      pop\n        /* \"#utility.yul\":152:481   */\n      swap3\n      swap2\n      pop\n      pop\n      jump\t// out\n        /* \"#utility.yul\":487:605   */\n    tag_41:\n        /* \"#utility.yul\":574:598   */\n      tag_43\n        /* \"#utility.yul\":592:597   */\n      dup2\n        /* \"#utility.yul\":574:598   */\n      tag_44\n      jump\t// in\n    tag_43:\n        /* \"#utility.yul\":569:572   */\n      dup3\n        /* \"#utility.yul\":562:599   */\n      mstore\n        /* \"#utility.yul\":487:605   */\n      pop\n      pop\n      jump\t// out\n        /* \"#utility.yul\":611:729   */\n    tag_45:\n        /* \"#utility.yul\":698:722   */\n      tag_47\n        /* \"#utility.yul\":716:721   */\n      dup2\n        /* \"#utility.yul\":698:722   */\n      tag_48\n      jump\t// in\n    tag_47:\n        /* \"#utility.yul\":693:696   */\n      dup3\n        /* \"#utility.yul\":686:723   */\n      mstore\n        /* \"#utility.yul\":611:729   */\n      pop\n      pop\n      jump\t// out\n        /* \"#utility.yul\":735:847   */\n    tag_49:\n        /* \"#utility.yul\":818:840   */\n      tag_51\n        /* \"#utility.yul\":834:839   */\n      dup2\n        /* \"#utility.yul\":818:840   */\n      tag_52\n      jump\t// in\n    tag_51:\n        /* \"#utility.yul\":813:816   */\n      dup3\n        /* \"#utility.yul\":806:841   */\n      mstore\n        /* \"#utility.yul\":735:847   */\n      pop\n      pop\n      jump\t// out\n        /* \"#utility.yul\":853:1075   */\n    tag_11:\n        /* \"#utility.yul\":946:950   */\n      0x00\n        /* \"#utility.yul\":984:986   */\n      0x20\n        /* \"#utility.yul\":973:982   */\n      dup3\n        /* \"#utility.yul\":969:987   */\n      add\n        /* \"#utility.yul\":961:987   */\n      swap1\n      pop\n        /* \"#utility.yul\":997:1068   */\n      tag_54\n        /* \"#utility.yul\":1065:1066   */\n      0x00\n        /* \"#utility.yul\":1054:1063   */\n      dup4\n        /* \"#utility.yul\":1050:1067   */\n      add\n        /* \"#utility.yul\":1041:1047   */\n      dup5\n        /* \"#utility.yul\":997:1068   */\n      tag_41\n      jump\t// in\n    tag_54:\n        /* \"#utility.yul\":853:1075   */\n      swap3\n      swap2\n      pop\n      pop\n      jump\t// out\n        /* \"#utility.yul\":1081:1303   */\n    tag_15:\n        /* \"#utility.yul\":1174:1178   */\n      0x00\n        /* \"#utility.yul\":1212:1214   */\n      0x20\n        /* \"#utility.yul\":1201:1210   */\n      dup3\n        /* \"#utility.yul\":1197:1215   */\n      add\n        /* \"#utility.yul\":1189:1215   */\n      swap1\n      pop\n        /* \"#utility.yul\":1225:1296   */\n      tag_56\n        /* \"#utility.yul\":1293:1294   */\n      0x00\n        /* \"#utility.yul\":1282:1291   */\n      dup4\n        /* \"#utility.yul\":1278:1295   */\n      add\n        /* \"#utility.yul\":1269:1275   */\n      dup5\n        /* \"#utility.yul\":1225:1296   */\n      tag_45\n      jump\t// in\n    tag_56:\n        /* \"#utility.yul\":1081:1303   */\n      swap3\n      swap2\n      pop\n      pop\n      jump\t// out\n        /* \"#utility.yul\":1309:1523   */\n    tag_19:\n        /* \"#utility.yul\":1398:1402   */\n      0x00\n        /* \"#utility.yul\":1436:1438   */\n      0x20\n        /* \"#utility.yul\":1425:1434   */\n      dup3\n        /* \"#utility.yul\":1421:1439   */\n      add\n        /* \"#utility.yul\":1413:1439   */\n      swap1\n      pop\n        /* \"#utility.yul\":1449:1516   */\n      tag_58\n        /* \"#utility.yul\":1513:1514   */\n      0x00\n        /* \"#utility.yul\":1502:1511   */\n      dup4\n        /* \"#utility.yul\":1498:1515   */\n      add\n        /* \"#utility.yul\":1489:1495   */\n      dup5\n        /* \"#utility.yul\":1449:1516   */\n      tag_49\n      jump\t// in\n    tag_58:\n        /* \"#utility.yul\":1309:1523   */\n      swap3\n      swap2\n      pop\n      pop\n      jump\t// out\n        /* \"#utility.yul\":1610:1706   */\n    tag_44:\n        /* \"#utility.yul\":1647:1654   */\n      0x00\n        /* \"#utility.yul\":1676:1700   */\n      tag_62\n        /* \"#utility.yul\":1694:1699   */\n      dup3\n        /* \"#utility.yul\":1676:1700   */\n      tag_63\n      jump\t// in\n    tag_62:\n        /* \"#utility.yul\":1665:1700   */\n      swap1\n      pop\n        /* \"#utility.yul\":1610:1706   */\n      swap2\n      swap1\n      pop\n      jump\t// out\n        /* \"#utility.yul\":1712:1838   */\n    tag_63:\n        /* \"#utility.yul\":1749:1756   */\n      0x00\n        /* \"#utility.yul\":1789:1831   */\n      0xffffffffffffffffffffffffffffffffffffffff\n        /* \"#utility.yul\":1782:1787   */\n      dup3\n        /* \"#utility.yul\":1778:1832   */\n      and\n        /* \"#utility.yul\":1767:1832   */\n      swap1\n      pop\n        /* \"#utility.yul\":1712:1838   */\n      swap2\n      swap1\n      pop\n      jump\t// out\n        /* \"#utility.yul\":1844:1921   */\n    tag_48:\n        /* \"#utility.yul\":1881:1888   */\n      0x00\n        /* \"#utility.yul\":1910:1915   */\n      dup2\n        /* \"#utility.yul\":1899:1915   */\n      swap1\n      pop\n        /* \"#utility.yul\":1844:1921   */\n      swap2\n      swap1\n      pop\n      jump\t// out\n        /* \"#utility.yul\":1927:2013   */\n    tag_52:\n        /* \"#utility.yul\":1962:1969   */\n      0x00\n        /* \"#utility.yul\":2002:2006   */\n      0xff\n        /* \"#utility.yul\":1995:2000   */\n      dup3\n        /* \"#utility.yul\":1991:2007   */\n      and\n        /* \"#utility.yul\":1980:2007   */\n      swap1\n      pop\n        /* \"#utility.yul\":1927:2013   */\n      swap2\n      swap1\n      pop\n      jump\t// out\n        /* \"#utility.yul\":2019:2186   */\n    tag_29:\n        /* \"#utility.yul\":2056:2059   */\n      0x00\n        /* \"#utility.yul\":2079:2101   */\n      tag_68\n        /* \"#utility.yul\":2095:2100   */\n      dup3\n        /* \"#utility.yul\":2079:2101   */\n      tag_52\n      jump\t// in\n    tag_68:\n        /* \"#utility.yul\":2070:2101   */\n      swap2\n      pop\n        /* \"#utility.yul\":2123:2127   */\n      0xff\n        /* \"#utility.yul\":2116:2121   */\n      dup3\n        /* \"#utility.yul\":2113:2128   */\n      eq\n        /* \"#utility.yul\":2110:2151   */\n      iszero\n      tag_69\n      jumpi\n        /* \"#utility.yul\":2131:2149   */\n      tag_70\n      tag_71\n      jump\t// in\n    tag_70:\n        /* \"#utility.yul\":2110:2151   */\n    tag_69:\n        /* \"#utility.yul\":2178:2179   */\n      0x01\n        /* \"#utility.yul\":2171:2176   */\n      dup3\n        /* \"#utility.yul\":2167:2180   */\n      add\n        /* \"#utility.yul\":2160:2180   */\n      swap1\n      pop\n        /* \"#utility.yul\":2019:2186   */\n      swap2\n      swap1\n      pop\n      jump\t// out\n        /* \"#utility.yul\":2192:2372   */\n    tag_71:\n        /* \"#utility.yul\":2240:2317   */\n      0x4e487b7100000000000000000000000000000000000000000000000000000000\n        /* \"#utility.yul\":2237:2238   */\n      0x00\n        /* \"#utility.yul\":2230:2318   */\n      mstore\n        /* \"#utility.yul\":2337:2341   */\n      0x11\n        /* \"#utility.yul\":2334:2335   */\n      0x04\n        /* \"#utility.yul\":2327:2342   */\n      mstore\n        /* \"#utility.yul\":2361:2365   */\n      0x24\n        /* \"#utility.yul\":2358:2359   */\n      0x00\n        /* \"#utility.yul\":2351:2366   */\n      revert\n        /* \"#utility.yul\":2501:2618   */\n    tag_39:\n        /* \"#utility.yul\":2610:2611   */\n      0x00\n        /* \"#utility.yul\":2607:2608   */\n      dup1\n        /* \"#utility.yul\":2600:2612   */\n      revert\n        /* \"#utility.yul\":2624:2746   */\n    tag_35:\n        /* \"#utility.yul\":2697:2721   */\n      tag_77\n        /* \"#utility.yul\":2715:2720   */\n      dup2\n        /* \"#utility.yul\":2697:2721   */\n      tag_44\n      jump\t// in\n    tag_77:\n        /* \"#utility.yul\":2690:2695   */\n      dup2\n        /* \"#utility.yul\":2687:2722   */\n      eq\n        /* \"#utility.yul\":2677:2740   */\n      tag_78\n      jumpi\n        /* \"#utility.yul\":2736:2737   */\n      0x00\n        /* \"#utility.yul\":2733:2734   */\n      dup1\n        /* \"#utility.yul\":2726:2738   */\n      revert\n        /* \"#utility.yul\":2677:2740   */\n    tag_78:\n        /* \"#utility.yul\":2624:2746   */\n      pop\n      jump\t// out\n\n    auxdata: 0xa264697066735822122088f164b84c574cbbe246ad59586cb1da90d2788218fc9714169e0440871ba37164736f6c63430008070033\n}\n",
				"bytecode": {
					"linkReferences": {},
					"object": "608060405234801561001057600080fd5b50610384806100206000396000f3fe608060405234801561001057600080fd5b50600436106100575760003560e01c80630fc9eacc1461005c5780636a8610131461007a578063896b16f314610098578063d09de08a146100b6578063e30081a0146100c0575b600080fd5b6100646100dc565b604051610071919061023f565b60405180910390f35b610082610102565b60405161008f919061025a565b60405180910390f35b6100a0610142565b6040516100ad9190610275565b60405180910390f35b6100be610153565b005b6100da60048036038101906100d591906101e5565b61018c565b005b600060019054906101000a900473ffffffffffffffffffffffffffffffffffffffff1681565b60008060019054906101000a900473ffffffffffffffffffffffffffffffffffffffff1673ffffffffffffffffffffffffffffffffffffffff1631905090565b60008054906101000a900460ff1681565b60008081819054906101000a900460ff1680929190610171906102d9565b91906101000a81548160ff021916908360ff16021790555050565b80600060016101000a81548173ffffffffffffffffffffffffffffffffffffffff021916908373ffffffffffffffffffffffffffffffffffffffff16021790555050565b6000813590506101df81610337565b92915050565b6000602082840312156101fb576101fa610332565b5b6000610209848285016101d0565b91505092915050565b61021b81610290565b82525050565b61022a816102c2565b82525050565b610239816102cc565b82525050565b60006020820190506102546000830184610212565b92915050565b600060208201905061026f6000830184610221565b92915050565b600060208201905061028a6000830184610230565b92915050565b600061029b826102a2565b9050919050565b600073ffffffffffffffffffffffffffffffffffffffff82169050919050565b6000819050919050565b600060ff82169050919050565b60006102e4826102cc565b915060ff8214156102f8576102f7610303565b5b600182019050919050565b7f4e487b7100000000000000000000000000000000000000000000000000000000600052601160045260246000fd5b600080fd5b61034081610290565b811461034b57600080fd5b5056fea264697066735822122088f164b84c574cbbe246ad59586cb1da90d2788218fc9714169e0440871ba37164736f6c63430008070033",
					"opcodes": "PUSH1 0x80 PUSH1 0x40 MSTORE CALLVALUE DUP1 ISZERO PUSH2 0x10 JUMPI PUSH1 0x0 DUP1 REVERT JUMPDEST POP PUSH2 0x384 DUP1 PUSH2 0x20 PUSH1 0x0 CODECOPY PUSH1 0x0 RETURN INVALID PUSH1 0x80 PUSH1 0x40 MSTORE CALLVALUE DUP1 ISZERO PUSH2 0x10 JUMPI PUSH1 0x0 DUP1 REVERT JUMPDEST POP PUSH1 0x4 CALLDATASIZE LT PUSH2 0x57 JUMPI PUSH1 0x0 CALLDATALOAD PUSH1 0xE0 SHR DUP1 PUSH4 0xFC9EACC EQ PUSH2 0x5C JUMPI DUP1 PUSH4 0x6A861013 EQ PUSH2 0x7A JUMPI DUP1 PUSH4 0x896B16F3 EQ PUSH2 0x98 JUMPI DUP1 PUSH4 0xD09DE08A EQ PUSH2 0xB6 JUMPI DUP1 PUSH4 0xE30081A0 EQ PUSH2 0xC0 JUMPI JUMPDEST PUSH1 0x0 DUP1 REVERT JUMPDEST PUSH2 0x64 PUSH2 0xDC JUMP JUMPDEST PUSH1 0x40 MLOAD PUSH2 0x71 SWAP2 SWAP1 PUSH2 0x23F JUMP JUMPDEST PUSH1 0x40 MLOAD DUP1 SWAP2 SUB SWAP1 RETURN JUMPDEST PUSH2 0x82 PUSH2 0x102 JUMP JUMPDEST PUSH1 0x40 MLOAD PUSH2 0x8F SWAP2 SWAP1 PUSH2 0x25A JUMP JUMPDEST PUSH1 0x40 MLOAD DUP1 SWAP2 SUB SWAP1 RETURN JUMPDEST PUSH2 0xA0 PUSH2 0x142 JUMP JUMPDEST PUSH1 0x40 MLOAD PUSH2 0xAD SWAP2 SWAP1 PUSH2 0x275 JUMP JUMPDEST PUSH1 0x40 MLOAD DUP1 SWAP2 SUB SWAP1 RETURN JUMPDEST PUSH2 0xBE PUSH2 0x153 JUMP JUMPDEST STOP JUMPDEST PUSH2 0xDA PUSH1 0x4 DUP1 CALLDATASIZE SUB DUP2 ADD SWAP1 PUSH2 0xD5 SWAP2 SWAP1 PUSH2 0x1E5 JUMP JUMPDEST PUSH2 0x18C JUMP JUMPDEST STOP JUMPDEST PUSH1 0x0 PUSH1 0x1 SWAP1 SLOAD SWAP1 PUSH2 0x100 EXP SWAP1 DIV PUSH20 0xFFFFFFFFFFFFFFFFFFFFFFFFFFFFFFFFFFFFFFFF AND DUP2 JUMP JUMPDEST PUSH1 0x0 DUP1 PUSH1 0x1 SWAP1 SLOAD SWAP1 PUSH2 0x100 EXP SWAP1 DIV PUSH20 0xFFFFFFFFFFFFFFFFFFFFFFFFFFFFFFFFFFFFFFFF AND PUSH20 0xFFFFFFFFFFFFFFFFFFFFFFFFFFFFFFFFFFFFFFFF AND BALANCE SWAP1 POP SWAP1 JUMP JUMPDEST PUSH1 0x0 DUP1 SLOAD SWAP1 PUSH2 0x100 EXP SWAP1 DIV PUSH1 0xFF AND DUP2 JUMP JUMPDEST PUSH1 0x0 DUP1 DUP2 DUP2 SWAP1 SLOAD SWAP1 PUSH2 0x100 EXP SWAP1 DIV PUSH1 0xFF AND DUP1 SWAP3 SWAP2 SWAP1 PUSH2 0x171 SWAP1 PUSH2 0x2D9 JUMP JUMPDEST SWAP2 SWAP1 PUSH2 0x100 EXP DUP2 SLOAD DUP2 PUSH1 0xFF MUL NOT AND SWAP1 DUP4 PUSH1 0xFF AND MUL OR SWAP1 SSTORE POP POP JUMP JUMPDEST DUP1 PUSH1 0x0 PUSH1 0x1 PUSH2 0x100 EXP DUP2 SLOAD DUP2 PUSH20 0xFFFFFFFFFFFFFFFFFFFFFFFFFFFFFFFFFFFFFFFF MUL NOT AND SWAP1 DUP4 PUSH20 0xFFFFFFFFFFFFFFFFFFFFFFFFFFFFFFFFFFFFFFFF AND MUL OR SWAP1 SSTORE POP POP JUMP JUMPDEST PUSH1 0x0 DUP2 CALLDATALOAD SWAP1 POP PUSH2 0x1DF DUP2 PUSH2 0x337 JUMP JUMPDEST SWAP3 SWAP2 POP POP JUMP JUMPDEST PUSH1 0x0 PUSH1 0x20 DUP3 DUP5 SUB SLT ISZERO PUSH2 0x1FB JUMPI PUSH2 0x1FA PUSH2 0x332 JUMP JUMPDEST JUMPDEST PUSH1 0x0 PUSH2 0x209 DUP5 DUP3 DUP6 ADD PUSH2 0x1D0 JUMP JUMPDEST SWAP2 POP POP SWAP3 SWAP2 POP POP JUMP JUMPDEST PUSH2 0x21B DUP2 PUSH2 0x290 JUMP JUMPDEST DUP3 MSTORE POP POP JUMP JUMPDEST PUSH2 0x22A DUP2 PUSH2 0x2C2 JUMP JUMPDEST DUP3 MSTORE POP POP JUMP JUMPDEST PUSH2 0x239 DUP2 PUSH2 0x2CC JUMP JUMPDEST DUP3 MSTORE POP POP JUMP JUMPDEST PUSH1 0x0 PUSH1 0x20 DUP3 ADD SWAP1 POP PUSH2 0x254 PUSH1 0x0 DUP4 ADD DUP5 PUSH2 0x212 JUMP JUMPDEST SWAP3 SWAP2 POP POP JUMP JUMPDEST PUSH1 0x0 PUSH1 0x20 DUP3 ADD SWAP1 POP PUSH2 0x26F PUSH1 0x0 DUP4 ADD DUP5 PUSH2 0x221 JUMP JUMPDEST SWAP3 SWAP2 POP POP JUMP JUMPDEST PUSH1 0x0 PUSH1 0x20 DUP3 ADD SWAP1 POP PUSH2 0x28A PUSH1 0x0 DUP4 ADD DUP5 PUSH2 0x230 JUMP JUMPDEST SWAP3 SWAP2 POP POP JUMP JUMPDEST PUSH1 0x0 PUSH2 0x29B DUP3 PUSH2 0x2A2 JUMP JUMPDEST SWAP1 POP SWAP2 SWAP1 POP JUMP JUMPDEST PUSH1 0x0 PUSH20 0xFFFFFFFFFFFFFFFFFFFFFFFFFFFFFFFFFFFFFFFF DUP3 AND SWAP1 POP SWAP2 SWAP1 POP JUMP JUMPDEST PUSH1 0x0 DUP2 SWAP1 POP SWAP2 SWAP1 POP JUMP JUMPDEST PUSH1 0x0 PUSH1 0xFF DUP3 AND SWAP1 POP SWAP2 SWAP1 POP JUMP JUMPDEST PUSH1 0x0 PUSH2 0x2E4 DUP3 PUSH2 0x2CC JUMP JUMPDEST SWAP2 POP PUSH1 0xFF DUP3 EQ ISZERO PUSH2 0x2F8 JUMPI PUSH2 0x2F7 PUSH2 0x303 JUMP JUMPDEST JUMPDEST PUSH1 0x1 DUP3 ADD SWAP1 POP SWAP2 SWAP1 POP JUMP JUMPDEST PUSH32 0x4E487B7100000000000000000000000000000000000000000000000000000000 PUSH1 0x0 MSTORE PUSH1 0x11 PUSH1 0x4 MSTORE PUSH1 0x24 PUSH1 0x0 REVERT JUMPDEST PUSH1 0x0 DUP1 REVERT JUMPDEST PUSH2 0x340 DUP2 PUSH2 0x290 JUMP JUMPDEST DUP2 EQ PUSH2 0x34B JUMPI PUSH1 0x0 DUP1 REVERT JUMPDEST POP JUMP INVALID LOG2 PUSH5 0x6970667358 0x22 SLT KECCAK256 DUP9 CALL PUSH5 0xB84C574CBB 0xE2 CHAINID 0xAD MSIZE PC PUSH13 0xB1DA90D2788218FC9714169E04 BLOCKHASH DUP8 SHL LOG3 PUSH18 0x64736F6C6343000807003300000000000000 "
				},
				"gasEstimates": {
					"creation": {
						"codeDepositCost": "180000",
						"executionCost": "226",
						"totalCost": "180226"
					},
					"external": {
						"Setaddress()": "2542",
						"getbalanceofAddress()": "5129",
						"increment()": "26746",
						"setAddress(address)": "24838",
						"uInt8()": "2490"
					}
				},
				"methodIdentifiers": {
					"Setaddress()": "0fc9eacc",
					"getbalanceofAddress()": "6a861013",
					"increment()": "d09de08a",
					"setAddress(address)": "e30081a0",
					"uInt8()": "896b16f3"
				}
			},
			"storageLayout": {
				"storage": [
					{
						"astId": 3,
						"contract": "Learns/Integerwrap.sol:Second",
						"label": "uInt8",
						"offset": 0,
						"slot": "0",
						"type": "t_uint8"
					},
					{
						"astId": 12,
						"contract": "Learns/Integerwrap.sol:Second",
						"label": "Setaddress",
						"offset": 1,
						"slot": "0",
						"type": "t_address"
					}
				],
				"types": {
					"t_address": {
						"encoding": "inplace",
						"label": "address",
						"numberOfBytes": "20"
					},
					"t_uint8": {
						"encoding": "inplace",
						"label": "uint8",
						"numberOfBytes": "1"
					}
				}
			},
			"userdoc": {
				"kind": "user",
				"methods": {},
				"version": 1
			}
		}
	}
}